{
    "_format": "hh-sol-artifact-1",
    "contractName": "WavePortal",
    "sourceName": "contracts/WavePortal.sol",
    "abi": [
        {
            "inputs": [],
            "stateMutability": "payable",
            "type": "constructor"
        },
        {
            "anonymous": false,
            "inputs": [
                {
                    "indexed": true,
                    "internalType": "address",
                    "name": "from",
                    "type": "address"
                },
                {
                    "indexed": false,
                    "internalType": "string",
                    "name": "message",
                    "type": "string"
                },
                {
                    "indexed": false,
                    "internalType": "bool",
                    "name": "win",
                    "type": "bool"
                },
                {
                    "indexed": false,
                    "internalType": "uint256",
                    "name": "timestamp",
                    "type": "uint256"
                }
            ],
            "name": "NewWave",
            "type": "event"
        },
        {
            "inputs": [
                {
                    "internalType": "string",
                    "name": "",
                    "type": "string"
                }
            ],
            "name": "food",
            "outputs": [
                {
                    "internalType": "uint256",
                    "name": "",
                    "type": "uint256"
                }
            ],
            "stateMutability": "view",
            "type": "function"
        },
        {
            "inputs": [],
            "name": "getAllWaves",
            "outputs": [
                {
                    "components": [
                        {
                            "internalType": "address",
                            "name": "waver",
                            "type": "address"
                        },
                        {
                            "internalType": "string",
                            "name": "message",
                            "type": "string"
                        },
                        {
                            "internalType": "bool",
                            "name": "win",
                            "type": "bool"
                        },
                        {
                            "internalType": "uint256",
                            "name": "timestamp",
                            "type": "uint256"
                        }
                    ],
                    "internalType": "struct WavePortal.Wave[]",
                    "name": "",
                    "type": "tuple[]"
                }
            ],
            "stateMutability": "view",
            "type": "function"
        },
        {
            "inputs": [],
            "name": "getTotalWaves",
            "outputs": [
                {
                    "internalType": "uint256",
                    "name": "",
                    "type": "uint256"
                }
            ],
            "stateMutability": "view",
            "type": "function"
        },
        {
            "inputs": [
                {
                    "internalType": "address",
                    "name": "",
                    "type": "address"
                }
            ],
            "name": "lastWaveAt",
            "outputs": [
                {
                    "internalType": "uint256",
                    "name": "",
                    "type": "uint256"
                }
            ],
            "stateMutability": "view",
            "type": "function"
        },
        {
            "inputs": [
                {
                    "internalType": "address",
                    "name": "",
                    "type": "address"
                }
            ],
            "name": "prize",
            "outputs": [
                {
                    "internalType": "uint256",
                    "name": "",
                    "type": "uint256"
                }
            ],
            "stateMutability": "view",
            "type": "function"
        },
        {
            "inputs": [
                {
                    "internalType": "string",
                    "name": "_message",
                    "type": "string"
                }
            ],
            "name": "wave",
            "outputs": [],
            "stateMutability": "nonpayable",
            "type": "function"
        }
    ],
    "bytecode": "0x60806040526200004f6040518060400160405280601881526020017f57652068617665206265656e20636f73747275637465642100000000000000008152506200007760201b6200097a1760201c565b606444426200005f91906200017c565b6200006b919062000208565b60018190555062000308565b62000117816040516024016200008e9190620002e4565b6040516020818303038152906040527f41304fac000000000000000000000000000000000000000000000000000000007bffffffffffffffffffffffffffffffffffffffffffffffffffffffff19166020820180517bffffffffffffffffffffffffffffffffffffffffffffffffffffffff83818316178352505050506200011a60201b60201c565b50565b60008151905060006a636f6e736f6c652e6c6f679050602083016000808483855afa5050505050565b6000819050919050565b7f4e487b7100000000000000000000000000000000000000000000000000000000600052601160045260246000fd5b6000620001898262000143565b9150620001968362000143565b9250827fffffffffffffffffffffffffffffffffffffffffffffffffffffffffffffffff03821115620001ce57620001cd6200014d565b5b828201905092915050565b7f4e487b7100000000000000000000000000000000000000000000000000000000600052601260045260246000fd5b6000620002158262000143565b9150620002228362000143565b925082620002355762000234620001d9565b5b828206905092915050565b600081519050919050565b600082825260208201905092915050565b60005b838110156200027c5780820151818401526020810190506200025f565b838111156200028c576000848401525b50505050565b6000601f19601f8301169050919050565b6000620002b08262000240565b620002bc81856200024b565b9350620002ce8185602086016200025c565b620002d98162000292565b840191505092915050565b60006020820190508181036000830152620003008184620002a3565b905092915050565b61170480620003186000396000f3fe608060405234801561001057600080fd5b50600436106100625760003560e01c80630a0dd3b214610067578063449d46c0146100975780638adf9c1f146100b35780639a2cdc08146100e3578063bd43a90814610101578063cb1995031461011f575b600080fd5b610081600480360381019061007c9190610e10565b61014f565b60405161008e9190610e72565b60405180910390f35b6100b160048036038101906100ac9190610e10565b61017d565b005b6100cd60048036038101906100c89190610eeb565b610793565b6040516100da9190610e72565b60405180910390f35b6100eb6107ab565b6040516100f89190610e72565b60405180910390f35b6101096107f6565b60405161011691906110fe565b60405180910390f35b61013960048036038101906101349190610eeb565b610962565b6040516101469190610e72565b60405180910390f35b6006818051602081018201805184825260208301602085012081835280955050505050506000915090505481565b426224ea00600460003373ffffffffffffffffffffffffffffffffffffffff1673ffffffffffffffffffffffffffffffffffffffff168152602001908152602001600020546101cc919061114f565b1061020c576040517f08c379a000000000000000000000000000000000000000000000000000000000815260040161020390611202565b60405180910390fd5b42600460003373ffffffffffffffffffffffffffffffffffffffff1673ffffffffffffffffffffffffffffffffffffffff168152602001908152602001600020819055506001600682604051610262919061125e565b9081526020016040518091039020600082825461027f919061114f565b925050819055506001600080828254610298919061114f565b925050819055506102df6040518060400160405280601681526020017f257320776176656420772f206d657373616765202573000000000000000000008152503383610a13565b606460015442446102f0919061114f565b6102fa919061114f565b61030491906112a4565b60018190555061034b6040518060400160405280601681526020017f52616e646f6d20232067656e6572617465643a20256400000000000000000000815250600154610ab2565b6000600190506032600154116105a25761039a6040518060400160405280600781526020017f257320776f6e210000000000000000000000000000000000000000000000000081525033610b4e565b6000655af3107a4000905047600380549050826103b791906112d5565b11156103f8576040517f08c379a00000000000000000000000000000000000000000000000000000000081526004016103ef906113a1565b60405180910390fd5b60005b60038054905081101561059b5760016005600060038481548110610422576104216113c1565b5b9060005260206000200160009054906101000a900473ffffffffffffffffffffffffffffffffffffffff1673ffffffffffffffffffffffffffffffffffffffff1673ffffffffffffffffffffffffffffffffffffffff1681526020019081526020016000206000828254610496919061114f565b925050819055506000600382815481106104b3576104b26113c1565b5b9060005260206000200160009054906101000a900473ffffffffffffffffffffffffffffffffffffffff1673ffffffffffffffffffffffffffffffffffffffff168360405161050190611421565b60006040518083038185875af1925050503d806000811461053e576040519150601f19603f3d011682016040523d82523d6000602084013e610543565b606091505b5050905080610587576040517f08c379a000000000000000000000000000000000000000000000000000000000815260040161057e906114a8565b60405180910390fd5b508080610593906114c8565b9150506103fb565b50506105e6565b600090506105e56040518060400160405280600f81526020017f257320646964206e6f742077696e2e000000000000000000000000000000000081525033610b4e565b5b600260405180608001604052803373ffffffffffffffffffffffffffffffffffffffff168152602001848152602001831515815260200142815250908060018154018082558091505060019003906000526020600020906004020160009091909190915060008201518160000160006101000a81548173ffffffffffffffffffffffffffffffffffffffff021916908373ffffffffffffffffffffffffffffffffffffffff16021790555060208201518160010190805190602001906106ad929190610c13565b5060408201518160020160006101000a81548160ff0219169083151502179055506060820151816003015550506003339080600181540180825580915050600190039060005260206000200160009091909190916101000a81548173ffffffffffffffffffffffffffffffffffffffff021916908373ffffffffffffffffffffffffffffffffffffffff1602179055503373ffffffffffffffffffffffffffffffffffffffff167f60a1d5790574ec51616f7f8876394497ede7d5ed490837e6fd788ce4d11a7a2483834260405161078793929190611559565b60405180910390a25050565b60056020528060005260406000206000915090505481565b60006107ee6040518060400160405280601781526020017f5765206861766520256420746f74616c20776176657321000000000000000000815250600054610ab2565b600054905090565b60606002805480602002602001604051908101604052809291908181526020016000905b8282101561095957838290600052602060002090600402016040518060800160405290816000820160009054906101000a900473ffffffffffffffffffffffffffffffffffffffff1673ffffffffffffffffffffffffffffffffffffffff1673ffffffffffffffffffffffffffffffffffffffff1681526020016001820180546108a3906115c6565b80601f01602080910402602001604051908101604052809291908181526020018280546108cf906115c6565b801561091c5780601f106108f15761010080835404028352916020019161091c565b820191906000526020600020905b8154815290600101906020018083116108ff57829003601f168201915b505050505081526020016002820160009054906101000a900460ff161515151581526020016003820154815250508152602001906001019061081a565b50505050905090565b60046020528060005260406000206000915090505481565b610a108160405160240161098e91906115f8565b6040516020818303038152906040527f41304fac000000000000000000000000000000000000000000000000000000007bffffffffffffffffffffffffffffffffffffffffffffffffffffffff19166020820180517bffffffffffffffffffffffffffffffffffffffffffffffffffffffff8381831617835250505050610bea565b50565b610aad838383604051602401610a2b93929190611629565b6040516020818303038152906040527fe0e9ad4f000000000000000000000000000000000000000000000000000000007bffffffffffffffffffffffffffffffffffffffffffffffffffffffff19166020820180517bffffffffffffffffffffffffffffffffffffffffffffffffffffffff8381831617835250505050610bea565b505050565b610b4a8282604051602401610ac892919061166e565b6040516020818303038152906040527f9710a9d0000000000000000000000000000000000000000000000000000000007bffffffffffffffffffffffffffffffffffffffffffffffffffffffff19166020820180517bffffffffffffffffffffffffffffffffffffffffffffffffffffffff8381831617835250505050610bea565b5050565b610be68282604051602401610b6492919061169e565b6040516020818303038152906040527f319af333000000000000000000000000000000000000000000000000000000007bffffffffffffffffffffffffffffffffffffffffffffffffffffffff19166020820180517bffffffffffffffffffffffffffffffffffffffffffffffffffffffff8381831617835250505050610bea565b5050565b60008151905060006a636f6e736f6c652e6c6f679050602083016000808483855afa5050505050565b828054610c1f906115c6565b90600052602060002090601f016020900481019282610c415760008555610c88565b82601f10610c5a57805160ff1916838001178555610c88565b82800160010185558215610c88579182015b82811115610c87578251825591602001919060010190610c6c565b5b509050610c959190610c99565b5090565b5b80821115610cb2576000816000905550600101610c9a565b5090565b6000604051905090565b600080fd5b600080fd5b600080fd5b600080fd5b6000601f19601f8301169050919050565b7f4e487b7100000000000000000000000000000000000000000000000000000000600052604160045260246000fd5b610d1d82610cd4565b810181811067ffffffffffffffff82111715610d3c57610d3b610ce5565b5b80604052505050565b6000610d4f610cb6565b9050610d5b8282610d14565b919050565b600067ffffffffffffffff821115610d7b57610d7a610ce5565b5b610d8482610cd4565b9050602081019050919050565b82818337600083830152505050565b6000610db3610dae84610d60565b610d45565b905082815260208101848484011115610dcf57610dce610ccf565b5b610dda848285610d91565b509392505050565b600082601f830112610df757610df6610cca565b5b8135610e07848260208601610da0565b91505092915050565b600060208284031215610e2657610e25610cc0565b5b600082013567ffffffffffffffff811115610e4457610e43610cc5565b5b610e5084828501610de2565b91505092915050565b6000819050919050565b610e6c81610e59565b82525050565b6000602082019050610e876000830184610e63565b92915050565b600073ffffffffffffffffffffffffffffffffffffffff82169050919050565b6000610eb882610e8d565b9050919050565b610ec881610ead565b8114610ed357600080fd5b50565b600081359050610ee581610ebf565b92915050565b600060208284031215610f0157610f00610cc0565b5b6000610f0f84828501610ed6565b91505092915050565b600081519050919050565b600082825260208201905092915050565b6000819050602082019050919050565b610f4d81610ead565b82525050565b600081519050919050565b600082825260208201905092915050565b60005b83811015610f8d578082015181840152602081019050610f72565b83811115610f9c576000848401525b50505050565b6000610fad82610f53565b610fb78185610f5e565b9350610fc7818560208601610f6f565b610fd081610cd4565b840191505092915050565b60008115159050919050565b610ff081610fdb565b82525050565b610fff81610e59565b82525050565b600060808301600083015161101d6000860182610f44565b50602083015184820360208601526110358282610fa2565b915050604083015161104a6040860182610fe7565b50606083015161105d6060860182610ff6565b508091505092915050565b60006110748383611005565b905092915050565b6000602082019050919050565b600061109482610f18565b61109e8185610f23565b9350836020820285016110b085610f34565b8060005b858110156110ec57848403895281516110cd8582611068565b94506110d88361107c565b925060208a019950506001810190506110b4565b50829750879550505050505092915050565b600060208201905081810360008301526111188184611089565b905092915050565b7f4e487b7100000000000000000000000000000000000000000000000000000000600052601160045260246000fd5b600061115a82610e59565b915061116583610e59565b9250827fffffffffffffffffffffffffffffffffffffffffffffffffffffffffffffffff0382111561119a57611199611120565b5b828201905092915050565b600082825260208201905092915050565b7f576169742034207765656b730000000000000000000000000000000000000000600082015250565b60006111ec600c836111a5565b91506111f7826111b6565b602082019050919050565b6000602082019050818103600083015261121b816111df565b9050919050565b600081905092915050565b600061123882610f53565b6112428185611222565b9350611252818560208601610f6f565b80840191505092915050565b600061126a828461122d565b915081905092915050565b7f4e487b7100000000000000000000000000000000000000000000000000000000600052601260045260246000fd5b60006112af82610e59565b91506112ba83610e59565b9250826112ca576112c9611275565b5b828206905092915050565b60006112e082610e59565b91506112eb83610e59565b9250817fffffffffffffffffffffffffffffffffffffffffffffffffffffffffffffffff048311821515161561132457611323611120565b5b828202905092915050565b7f547279696e6720746f207769746864726177206d6f7265206d6f6e657920746860008201527f616e2074686520636f6e7472616374206861732e000000000000000000000000602082015250565b600061138b6034836111a5565b91506113968261132f565b604082019050919050565b600060208201905081810360008301526113ba8161137e565b9050919050565b7f4e487b7100000000000000000000000000000000000000000000000000000000600052603260045260246000fd5b600081905092915050565b50565b600061140b6000836113f0565b9150611416826113fb565b600082019050919050565b600061142c826113fe565b9150819050919050565b7f4661696c656420746f207769746864726177206d6f6e65792066726f6d20636f60008201527f6e74726163742e00000000000000000000000000000000000000000000000000602082015250565b60006114926027836111a5565b915061149d82611436565b604082019050919050565b600060208201905081810360008301526114c181611485565b9050919050565b60006114d382610e59565b91507fffffffffffffffffffffffffffffffffffffffffffffffffffffffffffffffff82141561150657611505611120565b5b600182019050919050565b600061151c82610f53565b61152681856111a5565b9350611536818560208601610f6f565b61153f81610cd4565b840191505092915050565b61155381610fdb565b82525050565b600060608201905081810360008301526115738186611511565b9050611582602083018561154a565b61158f6040830184610e63565b949350505050565b7f4e487b7100000000000000000000000000000000000000000000000000000000600052602260045260246000fd5b600060028204905060018216806115de57607f821691505b602082108114156115f2576115f1611597565b5b50919050565b600060208201905081810360008301526116128184611511565b905092915050565b61162381610ead565b82525050565b600060608201905081810360008301526116438186611511565b9050611652602083018561161a565b81810360408301526116648184611511565b9050949350505050565b600060408201905081810360008301526116888185611511565b90506116976020830184610e63565b9392505050565b600060408201905081810360008301526116b88185611511565b90506116c7602083018461161a565b939250505056fea264697066735822122051ddc3ced7c3602e23093fd4875112cd370f9ed16a2b6b8839bd8ffd8b76952b64736f6c63430008090033",
    "linkReferences": {},
    "deployedLinkReferences": {}
}